:020000040800F2
:1010000000500020215400081D5400081B54000803
:101010001B5400081B5400081B540008000000006B
:101020000000000000000000000000001D54000847
:101030001D540008000000001D5400081D54000845
:101040001B5400081B5400081B5400081B540008C4
:101050001B5400081B5400081B5400081B540008B4
:101060001B5400081B5400081B5400081B540008A4
:101070001B5400081B5400081B5400081B54000894
:101080001B5400081B5400081B540008C1360008FC
:10109000A1360008B13600081B5400081B54000894
:1010A0001B5400081B5400081B5400081B54000864
:1010B000A91500081B5400081B5400081B54000805
:1010C0001B5400081B5400081B5400081B54000844
:1010D0001B5400081B5400081B5400081B54000834
:1010E0001B5400081B5400081B5400081B54000824
:1010F0001B5400081B5400081B5400081B54000814
:101100001B5400081B5400081B5400081B54000803
:101110001B5400081B5400081B5400081B540008F3
:101120001B5400081B5400081B5400081B540008E3
:101130001B5400081B5400081B540008ED3600081F
:10114000CD360008DD3600081B5400081B5400088B
:10115000082008B500F0B2FCC0B2022803D9431F32
:101160005842584108BD0120FCE7000008B5054B76
:101170001B782BB102F0BCFEBDE8084002F0F8BFBE
:1011800008BD00BFD4060020024B1B780BB103F052
:101190003DB87047D40600200346B3F5317F0846BA
:1011A00029D00ED8B3F5197F21D006D8B3F5017F29
:1011B00019D0B3F5097F18D07047B3F5297F18D03F
:1011C000704740F2045293421BD007D8B3F5697FB1
:1011D00013D040F22442934211D0704740F26C7217
:1011E000934210D0704702F0FDBB02F041BC02F008
:1011F00073BC02F0DDBC02F05BBD02F095BD02F0F5
:101200009BBD02F0B9BD02F0BFBD08B5FFF7A0FF5E
:1012100028B1272000F068FC80F00100C0B208BDB2
:101220008188006803F08ABC8188006803F088BC6C
:1012300008B50B48FFF7F8FF0A48FFF7F5FF0A4823
:10124000FFF7F2FF0948FFF7EFFF0948FFF7E8FF54
:101250000848FFF7E5FF0022074B1A7008BD00BFE2
:1012600064070020240700203C0700202C070020F2
:101270003407002054070020D4060020F8B5B64BF0
:101280009988186803F062FC03F06AFCB34B186895
:1012900000F0E1FB04F024FDB14904F029FE014611
:1012A000342000F039FC03F031FE01F07DFC03F046
:1012B0002DFE0146132000F021FCAA4801F07FFB1F
:1012C00004F00EFDA84904F013FE0146152000F0BD
:1012D00023FCA64801F073FB04210446A44803F054
:1012E0006BFE014600286DD00121A14803F0ABFF41
:1012F0000A23B0FBF3F004F0EFFC9E4904F044FD38
:101300000146192000F008FC082000F0D7FB002857
:1013100074D140F674639C4258DD0021272000F010
:10132000EDFB0021182000F0E9FB934B934C9988CA
:10133000186803F008FC011E18BF0121282000F0E6
:10134000DDFB0C2000F0BAFB0746242000F0B6FBC2
:101350000546282000F0C8FB894E002862D1207085
:101360000021102000F0CAFBFFF762FFFFF7F0FE3C
:10137000002860D1FFF7ECFE20B9282000F0B4FB74
:10138000002867D11120217800F0B8FB02F0AAFFF5
:101390003378002B00F0DF8002F03EFD02F05BFDB1
:1013A00002F07EFD02F0D0FD02F0F2FD02F022FE1E
:1013B00002F046FE02F06CFE02F08CFEBDE8F84042
:1013C00002F0A2BE192000F099FB9DE70121272021
:1013D00000F094FBB4F5486F01DD0D21A2E7B4F5F0
:1013E0002F6F01DD14219DE7B4F5E16F01DD2021B0
:1013F00098E7B4F57A7F98DD3F2193E7082000F065
:101400005DFB022809D140F698039C4285DC01214E
:10141000272000F073FB282184E70021272000F01B
:101420006DFBE4E72378013B042B99D8DFE803F058
:1014300019313B558C00272000F056FB002899D02D
:10144000182000F035FB2C2894DD282000F04CFB00
:1014500000288FD003F05AFD4A4B186001232370F7
:1014600090E703F053FD0546072000F027FB3C23DF
:1014700058433B2804D9434B1B68ED1AA84201D2BC
:1014800002232370FFF7C1FE00283FF47BAF002347
:10149000E5E73D48FFF7C4FE3C48FFF7C1FE0123E6
:1014A00033700323DBE70121102000F027FB03F05A
:1014B0002DFD344BFA071860354808D5FFF7B4FE08
:1014C000BB07344806D5FFF7AFFE0423C7E7FFF795
:1014D000A7FEF5E7FFF7A4FEF7E7EDB2032D05D170
:1014E0002D48FFF79DFE2D48FFF79AFE1C2000F0C7
:1014F000DFFA0546052000F0DBFA8542284A10DCB9
:101500000023136003F002FD0546062000F0D6FA22
:101510003C2343430CD01B4A10682D1AAB4205D321
:1015200006E0136801330A2B1360EBDD05232370FB
:10153000FFF76BFE00283FF425AF1848FFF774FE55
:101540001548FFF771FEA2E7FFF772FE0021102099
:1015500000F0D4FA96E7F8BD4C070020D80600202A
:101560000000204170070020026B5F43A4070020A9
:10157000000400409FAA2A3F5C070020E4060020E8
:10158000D4060020DC060020640700202C07002081
:1015900054070020340700203C07002024070020C7
:1015A000E006002070470000014B186800F026BAE2
:1015B000D806002000B5ADF2947D00F0F5F800F0FB
:1015C00079F900226149624801F03AFA05225F493F
:1015D000604801F035FA022308225F495F4800F0B5
:1015E000A5FF022310225C495D4800F09FFF042301
:1015F0004FF400525B495C4800F098FF04235349C4
:101600001A465A4800F092FF042308224F495848CE
:1016100000F08CFF04234FF400424F49554800F07E
:1016200085FF04234FF480424B49534800F07EFF6E
:1016300004234FF400524849504800F077FF042338
:101640004FF4805244494E4800F070FF01AC01F065
:101650004BF900F0E9F84FF480414FF0007003F0CF
:1016600063FA00F033F900F01BF901F071FA4FF062
:101670008041204600F074F9424B022242491C602E
:1016800096A8012301F052FF0523404996A88DF842
:101690008C3701F0BEFA4FF4017196A801F056FCA8
:1016A0004FF4097196A801F051FC4FF4197196A8F6
:1016B00001F04CFC4FF4297196A801F047FC4FF45F
:1016C000317196A801F042FC4FF4697196A801F0BF
:1016D0003DFC40F2244196A801F038FC40F2045150
:1016E00096A801F033FC40F26C7196A801F02EFC34
:1016F0000023274A27490BA800F008FB6422204654
:10170000254900F045F932222046244900F040F9ED
:101710000A222046224900F03BF90421122000F061
:10172000EDF9042000F0CAF9B0F5D27F09DD0420FC
:1017300000F0CCF91B4904F0DBFB0146042000F06B
:10174000EBF90BA800F0F4FBFBE700BF0008014039
:10175000A407002070070020000C01405C07002057
:1017600044070020001001404C07002064070020BF
:10177000240700203C0700202C070020340700200D
:1017800054070020D806002000640040991100088A
:10179000E86E0008004800407D120008891100082A
:1017A0006D11000800007A4408B503F0E7FA4FF025
:1017B000E0231C4A40F20230C3F80C2D03F022FB58
:1017C00040F2033003F01EFB4FF4417003F01AFBAC
:1017D00040F2053003F016FB40F20E3003F012FB2E
:1017E00040F2923003F00EFB4FF4607003F00AFBFE
:1017F00040F2813003F006FB4FF4207003F002FB4F
:1018000040F2093003F0FEFA40F2862003F0FAFAC3
:101810004FF4407003F0F6FABDE8084040F299300A
:1018200003F0F0BA0003FA0570B596B003F00EF8B5
:10183000164C14220021044401A800F070FE144A42
:10184000144B1549CDE90123144BA402CDE9031330
:1018500002F0E0FF142101A802F0EAFF1590236DC9
:10186000834210D003F00AF9204603F0C3F80026A3
:1018700001ADA01955F8041B043603F019F9542ED4
:10188000F7D103F007F916B070BD00BFFDFF4100AE
:101890000010014000200101000C01400600010081
:1018A00008B51C2003F00EFEBDE80840E0211C2016
:1018B00003F016BE08B503204FF2234103F05EFB90
:1018C000BDE80840002003F02BBB000010B5234CFE
:1018D0004721204603F08DFB4FF6FF71204603F0B1
:1018E0008AFB204603F076FB2046042103F023FD0B
:1018F0002046012103F016FD2046502103F023FD70
:1019000020460F22002103F0ADFC20460F220121CA
:1019100003F0A8FC20460122002103F0CBFC0122A9
:101920002046114603F0C6FC2046002103F02BFCA4
:101930002046022103F04CFC2046002103F0EBFC82
:101940002046012103F0E7FC2046012103F075FC4D
:101950002046BDE8104003F042BB00BF0004004039
:1019600038B50C4605460162084603F02EFB2046BA
:1019700003F030FB204640F2CF2103F03AFB204633
:101980004FF6FF7103F037FB002328466B6238BD2A
:10199000F8B5436A0446032B0E4615462ADC006A56
:1019A00003F022FB144F636A0122F95C206A03F002
:1019B00024FB636A0022F95C206A03F02EFC0221FA
:1019C000636A05EB850505EB850503F10802AD00AB
:1019D00044F82360994024F81250206A03F0E8FA92
:1019E0000021206A03F03CFC206A03F0F8FA636AE5
:1019F00001336362F8BD00BFB46000082DE9F04117
:101A000004460025022700F11006D4E90803AB4282
:101A10001CDD07FA05F103F0CFFAA0B1206A03F04C
:101A200010FC236A3188343353F8252080460A4459
:101A300043F8252054F825309847206A03F001FC2C
:101A4000A0EB0800308101350236DEE71E21BDE83B
:101A5000F04103F0B7BA002170B500F11003466AF7
:101A60000A2508468E4209DD1C461A8924886A43E5
:101A7000B2FBF4F2023310440131F3E770BD000011
:101A800010B51C24084A04FB0022D4688C4209DCEF
:101A900012698A4206DB054A42F82010FFF782FDF0
:101AA000002010BDFF20FCE7D40000200000002033
:101AB000014B53F82000704700000020024B53F800
:101AC00020004011704700BF0000002008B5054B02
:101AD00053F8200004F004F94FF0745104F054F965
:101AE00008BD00BF00000020034B53F82000401148
:101AF000431E58425841704700000020024B4901E4
:101B000043F82010704700BF00000020014B43F84D
:101B1000201070470000002010B5044608464FF022
:101B2000844104F031F904F07FFA024B43F82400B9
:101B300010BD00BF0000002070B506460024074D10
:101B40003146686800F04AFC08B9E0B270BD013463
:101B5000352C05F11C05F3D13620F7E7D400002021
:101B60000023064A9169814201D1D8B270470133FE
:101B7000352B02F11C02F5D136207047D40000202D
:101B80001C22024B02FB0030704700BFD400002033
:101B90001C22044B02FB0033D3E90303C01A18BF15
:101BA00001207047D40000200023064A06499069AE
:101BB00010B1506941F823000133352B02F11C02AA
:101BC000F5D17047D400002000000020014B1954CB
:101BD000704700BFE5060020024B1A5C1143195400
:101BE000704700BFE5060020024A135C23EA0103A8
:101BF00013547047E5060020014B185C704700BF86
:101C0000E5060020024B1A68024BC3F838227047E1
:101C1000C0060020D400002038B5837D044623B9D7
:101C2000BDE83840806803F0D1BB90F82030426AAC
:101C3000DB01034413440A2983F8A91001D07F2A49
:101C400039D11E4D636802222846197902F01BFE25
:101C500018B994F82830002BF4D063681748197924
:101C600002F05DFE626A636801321979134892B22C
:101C700002F077FE94F82020636804EBC212197911
:101C80000E48A93202F05DFE6368022219790B4802
:101C900002F0F3FD63680948197902F037FE94F801
:101CA0002030B3FA83F35B0984F82030002384F8F2
:101CB0002830636238BD01324262FBE70000024017
:101CC0002021806803F0A3BB806803F098BB00006C
:101CD00038B504460C4D43682846597902F01FFE7A
:101CE00063682846597904F1290202F02AFE6368E4
:101CF00028465979802202F034FE636828465979D3
:101D0000BDE8384002F002BE0000024070B502613A
:101D100040F201120D464A498282016001210022EF
:101D2000817580F8281004460321C0E9062280F856
:101D300020204262434A85600373426062681068F3
:101D4000A84206D1404A146062683BB99068938902
:101D500006E0183201396260F0D1F3E71069938A26
:101D60000222032102F0B0FE28464FF4E13103F0D5
:101D7000F3FA2846082103F003FB28464FF40051EC
:101D800003F007FB28460C2103F00FFB2846002137
:101D900003F005FB0021284603F00DFB284603F065
:101DA00020FB284603F022FB63682848197902F0DB
:101DB00053FD63682548197902F09FFD63682E1D65
:101DC00032461979214802F0B3FD6368002219797F
:101DD0001E4802F06FFD6368002219791B4802F06B
:101DE0005CFD63681948197902F071FD6368174852
:101DF000597902F031FD636832465979134802F08F
:101E000097FD636800225979104802F053FD63681A
:101E1000002259790D4802F040FD63680B4859795A
:101E200002F055FD63680948597902F06FFD2046BC
:101E3000FFF74EFF284603F0C4FA204670BD00BFEE
:101E4000B46C0008646C00081C070020000002400D
:101E500038B5437D0D4604694BB1216839B1284638
:101E600000F0BCFA08B10834F7E7236803B900248E
:101E7000204638BD38B505464C1E14F8011F19B16F
:101E8000A86803F0A3FAF8E738BD000010B50446CF
:101E9000084600F00FFB00F0F4FA237D227B83421A
:101EA000636811D1012161755AB118699B8A0321B8
:101EB000022202F009FE2046BDE810400949FFF762
:101EC000D9BF98689B89F2E7002161753AB118691A
:101ED0009B8A0122BDE81040002102F0F5BD986800
:101EE0009B89F6E7D470000838B50446084600F030
:101EF000E1FA0378302B637D0CBF4FF4E1354FF4EA
:101F000061253BB120460849FFF7B4FF2046074949
:101F1000FFF7B0FF2946A06803F01EFAA068002171
:101F2000BDE8384003F035BAD47000081E6C0008D4
:101F30002DE9F041436804465979464802F00AFD0C
:101F40000546C0F1800710B92046FFF7C1FEE369DE
:101F5000BB4208DA5A1CE261234493F82910A068B6
:101F600003F034FAF3E7002F72DD651B95F8A83013
:101F70000A2B01D00D2B5FD10022E31904F12906B1
:101F800083F8292020213046E26100F045FA90F8DC
:101F900000800546B8F1000F2BD10A21304600F031
:101FA0003BFA054684F8A9812B7823B90D213046E8
:101FB00000F032FA0546002330462B702649A36113
:101FC00000F00CFA0546D0B9204604F2A911FFF73B
:101FD0005DFF2046FFF77CFEA3691BB3A06803F0FA
:101FE00012FAA369204604F2A9115B68BDE8F0412A
:101FF0001847411C04F2A91000F0FEF9D4E730465E
:10200000164900F0EBF9054628B9204604F2A9115B
:10201000FFF76AFFDDE731462046FFF719FF3D462F
:10202000A061D6E7012D13DD637D8BB12046BDE8AD
:10203000F0410B49FFF71EBF94F82930212B07D13F
:10204000A3692BB12046FFF743FE0023E361C8E7F5
:10205000BDE8F08100000240356C0008406C0008CB
:10206000496C0008034BC1B21B681A681846126815
:10207000104700BF1C07002000F0B2BD07B507499C
:10208000D1F8F027D1F8EC37D1F8E81700910449DE
:1020900000F01CFC03B05DF804FB00BF00F0FF1F64
:1020A000B86C00082DE9F04F044689B0084600F0EE
:1020B00001FA90F80080B8F1700F0CD1674D002044
:1020C0002C6000F02DFE664900F0FCFD00232B6023
:1020D00009B0BDE8F08FB8F1630F0BD1002000F01C
:1020E0001FFE00F085FF5F49204609B0BDE8F04FB4
:1020F00000F0ECBB202100F08FF903780BB95A49AE
:10210000F2E700F0D7F92021074600F085F90378BF
:10211000064613B9B8F1640FF1D10025384606F828
:10212000015BFFF709FD0746304600F0C3F9362F83
:10213000064601D14D49D7E7B8F1640F11D1112FEF
:1021400001D94B49D0E7284600F0EAFD394600F0B6
:1021500031FF02464749204609B0BDE8F04F00F084
:10216000B5BBAA460DF1100B2021304600F054F902
:10217000037881460BB9032DC1D1304689F800A000
:1021800000F07FF9032D37D1002835D110213046DA
:1021900000F02BFA079009F1010000F08BF90135EE
:1021A000042D0646E0D1DDE90496069DB8F1740FD2
:1021B000EBB24FF00000DDF81CA05FFA86FB039342
:1021C0001DD100F0ADFD8046504603F089FD4FF073
:1021D0005E5103F0D9FDEBB2019000934A465B4695
:1021E0003946404600F08BFF431D042B29D8DFE819
:1021F00003F02326201D1A004BF82500CBE700F042
:102200008FFD8046504603F06BFD4FF05E5103F0AA
:10221000BBFDEBB2019000934A465B46394640460F
:1022200000F096FFE0E74A46134994E73246134927
:1022300091E72A4612498EE74A4612498BE712492E
:1022400052E7124A124B13490128C8BF13460246EF
:10225000204609B0BDE8F04F00F038BB2007002051
:1022600099220008C36C0008E26C0008F56C0008B5
:10227000096D00082F6D0008446D0008586D0008B6
:102280006C6D0008806D0008A86D000802610008F0
:10229000A1700008C46D00082DE9F04385B00D461B
:1022A0009DF8349016461F46FFF76AFC114CD0F893
:1022B00004801149206800F009FBB9F1000F16D025
:1022C0000E49206800F002FB4FF084410C9803F0A7
:1022D0005BFD03F0A9FE2B46CDE90170424608499B
:1022E0002068009600F0F2FA05B0BDE8F0830549D9
:1022F000E7E700BF20070020EE6D0008F36D00083F
:10230000FB6D0008F76D00082DE9F04F054689B018
:10231000084600F0CFF803782549284605930026A3
:1023200000F0D4FA4FF02008DFF88890DFF888A09A
:10233000DFF888B0F7B23846FFF722FC044638468B
:10234000FFF75AFCC30702D5059B682B20D16368B1
:10235000A168384607930691FFF7AAFB06990190FA
:102360000091424649462846079B00F0AFFA38469E
:10237000FFF70EFCB0B102962368594601936369DA
:1023800028460093D4E9032300F0A0FA4FF02C086C
:102390000136352ECED12846094909B0BDE8F04FA7
:1023A00000F094BA5146284600F090FAEEE700BFDC
:1023B0000C6E00080E6E0008826E0008346E000875
:1023C000936E000810B50446FFF7EEFB2046BDE80B
:1023D0001040014900F07ABA996E0008431E013995
:1023E00013F8010F11F8012F10B10AB19042F7D084
:1023F000801A18BF01207047013911F8013F0BB94D
:102400000370704700F8013BF7E7034600201A5CB1
:1024100002B970470130FAE70346184613F8012B5A
:102420000AB18A42F9D1704700290346F0B520DA93
:102430002D2003F8010B012049421D46C71A91FBCC
:10244000F2FC02FB1C11303129702C46BCF100015A
:1024500005F101051E4605EB0700F0DC00232B709B
:10246000B4420BD93378227806F8012B04F80139ED
:10247000F6E704D13022417002700120F0BD002047
:10248000DBE730B503782D2B11D14FF0FF3401304D
:1024900000210A25431E01E005FB012113F8012F4D
:1024A000303AD0B20928F7D904FB01F030BD01243D
:1024B000EEE7000010B5134C02780146A2F10A03C2
:1024C000DBB2162B00F1010017D9A2B10846FFF7C5
:1024D0009CFF0C4C013808448142024609D2137813
:1024E00001380A3BDBB2162B03D824FA03F3DB07CF
:1024F000F2D400235370084610BD24FA03F3DA0720
:10250000DAD4E3E709004000002310B5934200D17C
:1025100010BD51F8234040F823400133F6E7013A5B
:1025200000D2704740F8041BF9E700002DE9F041A4
:102530005C1EE4B2042C0D4616460160828014D85D
:102540000C4B1F5D0C4B13F804800C4B1B5D012BD7
:1025500003D11146284602F0F1FA33464246394685
:102560002846BDE8F04102F0AFBA4FF0020800275C
:10257000F3E700BF506F0008556F00085A6F00085E
:102580004FF40042014B1A80704700BF6C070020D7
:1025900070B50C1EB4BF4FF0FF3301235C43013311
:1025A000064608BF2D234FF0640208BF06F8013B22
:1025B000611104F01F040546544330460A22FFF718
:1025C00033FF2E226411092C3254D8BF302206EB7F
:1025D0000003D8BF5A7021464FF00A02CCBF581CE6
:1025E000981CFFF721FF284670BDF0B503782D2B0E
:1025F00017D14FF0FF36013000244FF00A0C02E0F3
:1026000018460CFB0454034613F8012BA2F13005C5
:10261000EFB2092FF4D9AAB98C40224406FB02F08C
:10262000F0BD0126E8E78B4003EB650393FBF5F370
:102630000CFB05F51A4410F8013F303BDFB2092FBF
:10264000F1D9E9E70A250022AC46F4E72DE9F84381
:10265000141E06460D4624DD0022A95C09B1013294
:10266000FBE7A242ACBF0C46A41A13F0020F0CBF4A
:1026700020273027DB071ED4A0465FFA87F9B8F180
:10268000000F10DC24EAE473E41AA3EB050808EB5E
:10269000050915F8011B81B1336830461B6898475E
:1026A000F5E72027E6E73368494630461B68984738
:1026B00008F1FF38E3E70023E7E72546FFB2002DE6
:1026C00006DD3368394630461B689847013DF6E71A
:1026D000002CACBF09EB040009F10000BDE8F88351
:1026E0002DE9FF470746DDE90C8A16461C460D46D4
:1026F00061B930238DF805108DF8043042465346F9
:1027000001A9FFF7A3FF04B0BDE8F08723B10A2AAF
:102710002DD100292BDA4D4200230E9A8DF80F306F
:102720003A3A0DF10F03B5FBF6F006FB10510929FB
:1027300088BF89183031AE4203F1FF3903F8011C1C
:1027400017D964B1B8F1000F16D01AF0020F13D0E8
:102750003B682D2138461B68984708F1FF385346DF
:10276000424649463846FFF771FF2044CBE7002434
:10277000D2E705464B46D6E72D22002409F8012C66
:10278000A3F10209EBE70846FFF76CBC2DE9F04323
:1027900007460E46144600254FF00A08DFF804915C
:1027A0008BB03378002B78D0252B6FD17378002B2A
:1027B00073D0252B06F1010267D02D2B0ABF012310
:1027C0000023B21C164612F8011B302902D143F037
:1027D0000203F7E70022304610F8011BA1F1300C8C
:1027E0005FFA8CFEBEF1090F03D8064608FB02C251
:1027F000F1E7732908D121680434002908BF49464C
:102800003846FFF723FF0DE064290ED161202146F1
:10281000CDE90130012300920A22384609680434C8
:10282000FFF75EFF05440136BBE7782907D1214653
:102830006120CDE90130009200231022EDE75829F4
:1028400002D121464120F4E7752906D161202146B5
:10285000CDE9013000920023DEE766290AD1216824
:1028600007A8CDE904230434FFF792FEDDE9042331
:1028700007A9C5E76329D6D1216804348DF818105B
:1028800000218DF8191006A9BAE716463B683846AC
:102890001B68317898470135C5E728460BB0BDE87D
:1028A000F08300BF5F6F00080FB407B504AA52F8A9
:1028B000041B054B6846CDE90032FFF767FF03B004
:1028C0005DF804EB04B07047706F00080EB403B5F8
:1028D00003AA52F8041B0192FFF758FF02B05DF8FB
:1028E00004EB03B07047000038B5274C274D204655
:1028F00001F064FD204601F066FD204601F06DFD0B
:10290000204601F065FD0721204601F042FD2046EA
:1029100001F008FD204601F01FFD204601F02FFDCB
:10292000022120461A4A01F05DFD204601F089FD92
:1029300028460121174A01F0FBFF28460121164ACB
:1029400001F0FFFF28464FF48072012101F0B2FF31
:1029500028464FF48062012101F09FFF182228468B
:10296000012101F0FEFF2846012101F0B0FF2846B9
:10297000012101F0B5FF2846012101F0C7FF2046E3
:10298000BDE8384001F0D6BC002401400000024000
:102990006E0700204C2401407407002003468B4240
:1029A000084606DD914203DC9342A8BF1346184651
:1029B00070479342FBDC9142A8BF1046704773B545
:1029C0006E46056805F10C043C3534F8042C34F8E7
:1029D000081C34F80C0CFFF7E1FF0C34AC4226F86D
:1029E000020BF2D1BDF80230BDF800001844BDF86A
:1029F00004301844BDF806301844C0F38F0002B00C
:102A000070BD000008B50D4B98420BD003F58063F4
:102A100098420BD0A3F5006398420BD1072909DC3B
:102A2000C8B208BD012905DC0831F9E7052901DC38
:102A30000A31F5E701F086FC1020F2E7000C0140B6
:102A4000012370B593400D461646002204461146F8
:102A500028469BB202F038F8054B246831462846D8
:102A6000E41AFFF7CFFF034BC4F34F04185570BDB2
:102A7000740700206E070020034B044A1360044AC9
:102A800002331360704700BF74070020A4070020C2
:102A9000700700202DE9F047ADF5806D01F0D6FEFE
:102AA0002A4C4FF0FF380444A402234604F5806208
:102AB00053F8041B934208EA0108F9D101F0AAFE79
:102AC0004FF480724FF0FF316846FFF728FDEA4669
:102AD0006D460026F7B23846FFF75AF8B8B17F2E98
:102AE00005F1080513D03846FFF74AF88146384605
:102AF000FFF782F805F8050CD9F81830384625F8A4
:102B0000083CFEF7D5FF013645F8040CE2E7FE214C
:102B1000684601F08DFEFE9001F0B0FFB8F1FF3F76
:102B200002D0204601F066FF002560195AF8041B08
:102B3000043501F0BDFFB5F5806FF6D101F0AAFFB5
:102B4000FE980DF5806DBDE8F08700BFFFFF4100E6
:102B500070B501F07BFE134C0444A40201F05AFE50
:102B6000FE21204601F064FED4F8F833834215D1EB
:102B700004F57E762088FEF7F3FF3628054608D058
:102B8000238833B16168FEF7C1FF2846E178FFF77B
:102B90001DF80834B442EDD1002070BD4FF0FF3075
:102BA000FBE700BFFFFF4100014B1860704700BF0B
:102BB000A8070020074B10B403EBC1021479064AA2
:102BC00053F8313052F82420014610BC0348FFF777
:102BD0006BBE00BFD86F0008F06F0008746F00086C
:102BE00038B5094C636823B9BDE838400748FFF79A
:102BF0005BBE0025606830B114F8081B0135FFF793
:102C0000D9FF042DF6D138BDA0060020846F00083E
:102C10007047C0F81415704730B50C240023614389
:102C20000B4A8BB054185258A568CDE90332CDE950
:102C30000733CDE9013364680695059400930122BA
:102C40001946D0F8300501F00DFC0BB030BD00BFC7
:102C5000FC6F0008F7B50E4615461F4604460121D5
:102C6000D0F8300501F003FDB6F5006F34BF002247
:102C7000012200233146CDE90075D4F8300501F07A
:102C8000FBFC002810DAD4F8100513280CDC04EB48
:102C90000012C2E9F4672B680130C2F8D8336B68C0
:102CA000C2F8DC33C4F81005D4F81035002B07DD6A
:102CB0000121D4F8300503B0BDE8F04001F0D3BCE9
:102CC00003B0F0BD2DE9F347064688460546824627
:102CD00000274FF00C09A5EB0A03382B18DCAC7861
:102CE000462C15D009FB046494F881307834FF2B0E
:102CF0000CD0019723680093237AE2792079298800
:102D0000C047647AEEE7AA460127E4E70435E2E724
:102D100006F13C05002FF6D002B0BDE8F0870000B8
:102D20000128DABF024B53F820000020704700BF93
:102D3000AC070020F7B504466FF0704640F2FF770D
:102D400000F57475D4F81035002B1ADD33441A01E0
:102D500005EB0313A95803F1080201921B79B9424C
:102D600094BF002201220093D4F83005002301F023
:102D700083FC002805DBD4F81035013BC4F810357E
:102D8000E0E7D4F810353BB90121D4F8300503B0A1
:102D9000BDE8F04001F06BBC03B0F0BDF0B51C46DF
:102DA00026880F467601B1B20126106885B09B884F
:102DB000029606400196E688154662887601B6B20C
:102DC0005B0152019BB292B2009601F02FFC0023EE
:102DD0003B602A6801322A60E380A38063802380FD
:102DE00005B0F0BD73B5106815460E465A681968EF
:102DF0001C460123D200C900009342F004020340A4
:102E000041F0040101F022FC002333602A68013202
:102E10002A60C4E9003302B070BD00000023012223
:102E2000F0B50446002589B0CDE90123D0F830156E
:102E3000444ACDE906339142CDE9043318BF424BF1
:102E400000F5A3661CBFD3F8003AC3F30523039330
:102E5000D4F82C35AB4229DD36F8022BB2F5006FE1
:102E60001BD3029B08A901EB8301013341F8082C15
:102E70000293019B042B05D1204604AB03AA01A9B0
:102E8000FFF78CFF029B022B05D1204606AB03AA5D
:102E900002A9FFF7A7FF0135DAE7019B08A901EBBB
:102EA0004301013321F8102C0193E2E704F13C07C0
:102EB00004F1400515F8023C2E46462B13D1019B28
:102EC000002B05DD204604AB03AA01A9FFF766FF2E
:102ED000029B002B05DD204606AB03AA02A9FFF7E3
:102EE00081FF09B0F0BD35F8042CB2F5006F1FD397
:102EF000029B08A901EB8301013341F8082C0293DE
:102F0000019B042B05D1204604AB03AA01A9FFF7BE
:102F100045FF029B022B05D1204606AB03AA02A95E
:102F2000FFF760FFF61B382E05F10405C2DDC6E78A
:102F3000019B08A901EB4301013321F8102C0193F7
:102F4000DEE700BF0064004000600040D0F82C25A0
:102F500010B5092A0ADC02F52374013220F8141096
:102F6000C0F82C25FFF75AFF012010BD0020FCE718
:102F7000F0B50C460C27A378462B19D0002607FB8A
:102F8000030378335D7AFF2D0ED0B3F804C0944567
:102F900001D13EB175725D7A1E4607FB050505F14C
:102FA0007803EFE7A570F6E70434631A382BE2DD07
:102FB0000020F0BD38B50A4601460446FFF7D8FFA9
:102FC00004F13C0105462046FFF7D2FF284438BDF6
:102FD000462201F13C038A7004319942FBD1FF2261
:102FE00000F5557380F881200C309842FAD1704773
:102FF00010B504460146FFF7EBFF204604F13C0103
:10300000FFF7E6FF2046BDE81040FFF707BF084680
:103010008378462B06D00388934204D00430431AA9
:10302000382BF5DD002070472DE9F047B3F1005F44
:10303000904606460F461A469DF820909DF824A01B
:1030400037D2B9F13F0F37D8BAF1200F37D8FFF791
:10305000DEFF002844D10B463C319C781846462CB4
:103060003DD004338B42F8D16FF003001DE003FB29
:1030700004630A99A3F87C8099679DF92C1083F862
:103080007F9083F87E1083F880A083F88150E4B2AB
:103090006AB984703B4600209A78462A05D00433EA
:1030A000DA1B382A00F10100F6DDBDE8F087547222
:1030B000F0E74FF0FF30F8E76FF00100F5E76FF051
:1030C0000200F2E700220C238578462DCFD05D4325
:1030D00005F17802354495F881503244F5E71A80BD
:1030E00000240C2206F1810302FB04F1595CFF2944
:1030F000E8D00134462CF7D16FF00400D5E71FB5B6
:1031000000240394079C02949DF81840CDE90034F4
:1031100013460A460146FFF787FF04B010BD30B5DD
:1031200085B09DF9285004460395099D02959DF8A8
:103130002050CDE9003513460A4600F13C01FFF767
:1031400073FF05462046FFF769FE284605B030BDEF
:103150001FB500240294079C01949DF81840009428
:10316000FFF7DDFF04B010BD2DE9F347B1F80160B2
:103170000546A6F50053012B0C4624D8C878342800
:1031800051D842F201039E4201D1FEF7E9FC2378B7
:10319000402B11D16168FEF773FCB0BB2323237071
:1031A00008232246284695F8341501F5B06102B08F
:1031B000BDE8F047FFF74EBD222BF1D1FEF778FCBA
:1031C00043236060EBE7A6F54053B3F5C05F2AD216
:1031D000CF78342F27D80B78402BE1D14868C6F33D
:1031E0000A085FFA80F9C0F3072A000C02F078FDA4
:1031F000760401904B46424639462846CDF800A059
:103200000ED5FFF7A5FF0028C8DA802323703023EE
:103210002371002363710923A3710623E371BFE7C0
:10322000FFF76DFFEFE780232370002323716371A5
:103230000223F1E72DE9F04F05460F464FF0844A8F
:103240008BB0002305930DF11A0303930DF11B03BB
:1032500002930DF1190308AC019306AB0093012210
:10326000D5F83005049407ABF9B201F07CFA0028D8
:1032700067D095F83435079A03F5C063934208D1B7
:103280009DF81A30082B04D121462846FFF76CFF21
:10329000D7E72D4B1B78002BD3D1284605F13C01F5
:1032A000FFF7B5FE002846D04FF00C084FF0010B99
:1032B000847808FB04547834637AFF2B36D0E079A5
:1032C000237A1F288ABF099A089A20380BFA03F339
:1032D000013B22FA00F0184002F0FEFC064694F989
:1032E000060002F0FDFC314602F046FC216802F0C7
:1032F0004BFD06462079FEF74BFCB4F8049078B1FC
:103300005146304602F040FD02F08EFE01465FFA63
:1033100089F0FEF7B5FB647A08FB04547834CBE7F8
:1033200031465FFA89F0FEF7F7FBF4E701F0EEFDB6
:10333000C5F8CC0385E721461046D5F814359847E3
:103340007FE70BB0BDE8F08FB40700202DE9F04116
:1033500000240F4698462646151F44450BDA55F8BB
:10336000040F01F05FFA2968064607EB840001F0BC
:103370009FFB0134F1E73046BDE8F0812DE9F041D3
:1033800007460D460E464FF00C08B478462C11D077
:1033900008FB047494F881307834FF2B06D0207930
:1033A000FEF7EEFB8369A380647AF1E70436731BB2
:1033B000382BEADDBDE8F0812DE9F04107460D46E6
:1033C0000E464FF00C08B478462C10D008FB04745D
:1033D00094F881307834FF2B05D0A088FEF7C0FB2D
:1033E000A080647AF2E70436731B382BEBDDBDE86E
:1033F000F081000010B5044601F028FAD4F8303509
:1034000000F50032044883420CBF4FF400604FF4D3
:103410008050C0EB822010BD00640040F7B5044628
:10342000FFF7E8FF0122054603464FF0FF36264F1F
:103430003A7000F5806253F8041B934206EA0106D5
:10344000F9D101F0E7F901F019FB022001F00CFBC2
:10345000013602D0284601F0CDFA04F13C0621469F
:103460002046FFF78BFF31462046FFF787FF2246B5
:1034700029460F232046FFF769FF324605F13C013C
:103480000F232046FFF762FF04F17802019005F157
:103490007801D2232046FFF759FF012301AA05F541
:1034A000737101902046FFF751FF01F0F3FA2146B6
:1034B0002046FFF781FF31462046FFF77DFF0023BE
:1034C0003B7003B0F0BD00BFB407002070B50446E8
:1034D000FFF790FF0546D0F8CC6301F09BF9F0218F
:1034E000284601F0A5F986421DD10F222946204623
:1034F00004F13C06FFF708F80F22304605F13C01C5
:10350000FFF702F8D22205F1780104F17800FEF706
:10351000FBFF21462046FFF74FFF20463146FFF7CD
:103520004BFF012070BD0020FCE700002DE9F041B9
:10353000002604460F461D46544BC0F83015C0F80F
:103540001435C0F8CC63C0F81065C0F82C659046FF
:10355000FFF74EFD2046FFF7B9FF4D4B9F421ED0AF
:1035600003F580639F4258D00123D4F8300584F8D6
:10357000343500F06BFF41462046FFF74DFB2046F7
:10358000FFF74CFCD4F83005022101F06CF8D4F8B8
:103590003005102101F067F82046BDE8F08155B3F1
:1035A0004FF48073022231463A4801F08DFA4FF40D
:1035B0008071384801F0C2FA4FF4007302220321EF
:1035C000344801F081FA142001F07CFFF02114202E
:1035D00001F086FF152001F075FFF021152001F0A4
:1035E0007FFF132001F06EFFF021132001F078FF20
:1035F000294B1C60B8E74FF4006302222946274894
:1036000001F062FA4FF40061244801F097FA4FF498
:103610008053022203212148D3E73DB32023022215
:1036200031461C4801F050FA20211A4801F086FA70
:10363000402302220321174801F046FA402001F0FE
:1036400041FFF021402001F04BFF412001F03AFF03
:10365000F021412001F044FF3F2001F033FFF02131
:103660003F2001F03DFF0C4B5C607DE74FF4805341
:1036700002222946074801F027FA4FF480510548F5
:1036800001F05CFA4FF40053D3E700BF112C00089F
:1036900000640040000C0140AC070020000801401D
:1036A000024B00211868FFF7C5BD00BFAC07002022
:1036B000024B01211868FFF7BDBD00BFAC07002019
:1036C000014B1868FFF736BBAC070020024B002106
:1036D0005868FFF7AFBD00BFAC070020024B0121C7
:1036E0005868FFF7A7BD00BFAC070020014B586822
:1036F000FFF720BBAC07002070B504460846FEF774
:10370000D9FE20210546FEF787FE03782BB9104924
:103710002046BDE87040FFF7D9B80023052100F826
:10372000013BFEF762FF06462846FEF705FA3628FB
:1037300007D03146FEF7A4F908B90649E8E706497B
:10374000E6E72A462046BDE870400449FFF7BEB8C8
:1037500038700008537000085C7000087170000831
:103760002DE9F84306460846FEF7A4FE0446DFF8B6
:103770004480DFF844902C212046FEF74DFE0023C4
:103780000778054603702046FEF7D6F936280DD097
:10379000FEF78EF9494602462C463046FFF796F86A
:1037A0002C2F04F8017BE6D0BDE8F8832246414681
:1037B000F2E700BF88700008076E00082DE9F041AD
:1037C00005460846FEF776FE20218046FEF724FED9
:1037D000037804462BB918492846BDE8F041FFF7A5
:1037E00075B8002707704046FEF7A6F9362806464A
:1037F0001AD06378212B0AD07E2B08D02F2B06D02D
:10380000611C0E48FEF7EAFD20B10D49E4E70127EF
:10381000A11CF6E7012130461FB1FEF7E5F9094981
:10382000DAE7FEF7D9F9FAE742462846BDE8F04163
:103830000549FFF74BB800BFA2700008B27000083E
:10384000B9700008C8700008717000082DE9F04FC9
:10385000054687B00846FEF72DFE0446FEF711FE2A
:10386000202106462046FEF7D7FD037833B92846C7
:103870002E4907B0BDE8F04FFFF728B80027B8463B
:10388000DFF8AC90441C2C212046FEF7C5FD824693
:1038900090F800B080F800802046FEF74DF95446BD
:1038A000362804F801BB1ED007F118036B4403F857
:1038B0000C0C01379AF800302C2B01D1092FE2DDD6
:1038C0002846FEF701FADFF86C80DFF86C90284696
:1038D000FEF7F6F9044618B9002E09DC721C07D071
:1038E00007B0BDE8F08F49462846FEF7EFFFE1E755
:1038F0004246DFF848A00DF10C0BA74201920CD014
:103900001BF80400FEF7D4F8019A034651462846F6
:10391000FEF7DCFF01344A46EFE728460849FEF788
:10392000D5FF731CD3D0013ED1E700BFD97000088A
:10393000F56C0008A1700008C16F0008F87000085D
:103940009F70000810B504460020FFF7E9F9FFF763
:1039500065FD06492046FEF7B9FFFFF79BF80449CD
:1039600002462046BDE81040FEF7B0BFFD700008DB
:103970000D71000810B50446FFF7EAF838B9FDF7F5
:1039800011FE04492046BDE81040FEF79FBF0249E2
:10399000F8E700BF297100083D71000808B501F083
:1039A00089FD00000000000008B50346C0F30900CF
:1039B0005B0548BFA0F2FF3002F026F806A3D3E96A
:1039C000002301F0A5FD0022054B01F0D1FE02F01D
:1039D00085F800B208BD00BF9A9999999999B93FA5
:1039E0000000444038B5C1791C4DC1F3C101044603
:1039F00023202970FEF782F82B781BB9302117207D
:103A0000FEF77CF82B78012B03D120211720FEF73D
:103A100075F82B78022B03D110211720FEF76EF8D2
:103A200021780F4B01F00F0124201970FEF766F882
:103A3000E07802F055F90B4902F0A6F90A4B01466D
:103A400018602520FEF768F82178084B890919705D
:103A50002620BDE83840FEF751B800BFFE07002021
:103A6000FD070020CDCCCC3DCC070020FB0700207B
:103A700010B54088144CC0F30B0001F0C5FF10A333
:103A8000D3E9002301F044FD02F050F880B2208019
:103A900002F022F901462120FEF73EF8208802F0CC
:103AA0001FF90A4B196802F06FF9BDE81040084B86
:103AB000014618601B20FEF72FB800BFAFF300804F
:103AC0009A9999999999B93FD2070020F407002053
:103AD000D8070020000000002DE9F041044680884E
:103AE0002D4EC0F3090001F08FFF27A3D3E9002377
:103AF00001F00EFD02F01AF83080E07802F0F0F8E4
:103B0000264902F041F9264B054618602088DFF867
:103B10009480C0F30D0001F077FF1DA3D3E90023CB
:103B200001F0F6FC02F002F8A8F80000A378607833
:103B30001D4F40EA4320C00901F066FF12A3D3E9FC
:103B4000002301F0E5FC01F0F1FF294638801A203E
:103B5000FDF7E2FFB8F8000002F0BEF801461E20B3
:103B6000FDF7DAFF388802F0B7F801461F20FDF7AD
:103B7000D3FF308802F0B0F8BDE8F04101462220C2
:103B8000FDF7CABFAFF300809A9999999999B93F07
:103B90004C37894160E5A03FBA070020CDCCCC3D31
:103BA000BC070020C0070020B6070020000000006E
:103BB0002DE9F84F384B0688384D1E80B0F80120AB
:103BC000C778D2102A8002798178D30343EAC713D9
:103BD000477990F806A0C088314CDFF8C89043EAD6
:103BE000510342EA07225B115210C0092380A9F851
:103BF000002001F009FF26A3D3E9002301F088FC8F
:103C000001F094FFDFF8A080DFF8A0B047EA0A27B0
:103C1000A8F800003F113046ABF80070FFF7C4FE73
:103C200002F05EF801462A20FDF776FF2888FFF7AC
:103C3000BBFE02F055F801462B20FDF76DFF2088F2
:103C4000FFF7B2FE02F04CF801462C20FDF764FFAE
:103C5000B9F80000FFF7A8FE02F042F801462D2057
:103C6000FDF75AFFB8F8000002F036F801462E20A2
:103C7000FDF752FFBBF80000FFF796FE02F030F8A8
:103C8000BDE8F84F01462F20FDF746BFAFF3008097
:103C9000D927806264C9D23FC2070020C60700202E
:103CA000C8070020DE070020D4070020C40700203A
:103CB00070B5194A03780446137003F0DF03C62B6E
:103CC000164E174D17D14088C0F30B0001F09CFE33
:103CD0000FA3D3E9002301F01BFC01F027FF308084
:103CE0006378207840EA4320800901F0F9FF0D490C
:103CF00002F04AF82860308801F0EEFF01461C20EF
:103D0000FDF70AFF29681D20BDE87040FDF704BFDC
:103D1000DE91B1DAFCBFC23F0C080020E0070020B2
:103D2000F40700200000203D0378024A03F00F034F
:103D300013707047F907002010B50C4C03780F2062
:103D40002370FDF7D1FE80B1094A20781378094924
:103D5000C8540133DBB20A2B88BF00231370332011
:103D6000BDE810401178FDF7C9BE10BDF80700206E
:103D7000FC07002002080020C179024B3120197095
:103D8000FDF7BCBEFA07002070B503781C4A0C2B67
:103D90001C4D1D4E1D4C137018D1B0F80100C0F31E
:103DA000090001F09DFF1A4901F0EEFF286031681B
:103DB000286801F0E1FE216801F0DEFEBDE87040F8
:103DC000144B014618602020FDF7A6BE162B0AD121
:103DD000B0F80100C0F3090001F082FF0C4901F0C6
:103DE000D3FF3060E3E7202BE1D1B0F80100C0F34E
:103DF000090001F075FF064901F0C6FF2060D6E713
:103E00000D080020E4070020E8070020EC07002050
:103E10000AD7233BF0070020F62307B58DF80030C2
:103E200015238DF8013009238DF8023082238DF897
:103E3000033018238DF80430012300208DF805305D
:103E4000FEF76EFF06236A4640F20A21FEF702FFE4
:103E500003B05DF804FBB92307B58DF800301C23CF
:103E60008DF8013094238DF80230AD238DF80330A6
:103E7000C3238DF8043015238DF8053006238DF803
:103E80000630632300208DF80730FEF749FF082332
:103E90006A4640F21221FEF7DDFE03B05DF804FB36
:103EA0002D2313B519208DF80030FDF707FE0024EF
:103EB00040008DF8010018208DF80240FDF7FEFD4E
:103EC00080238DF8043060238DF8063010238DF8A0
:103ED000030020468DF807308DF80540FEF720FFDF
:103EE00008236A4640F21D21FEF7B4FE02B010BD61
:103EF00007B50C20FDF7E2FD002310F0FF008DF860
:103F000004308DF8053003D170238DF8063005E0BC
:103F1000012813D0022813D0032813D01723002020
:103F20008DF80730FEF7FCFE042340F22A210DEB4A
:103F30000302FEF78FFE03B05DF804FB7523E4E790
:103F40007923E2E77D23E0E70A2307B58DF8003007
:103F500002238DF80130D5238DF8023009238DF826
:103F60000330CB2300208DF8043004238DF80600A5
:103F70008DF805308DF80700FEF7D2FE08236A465B
:103F800040F23221FEF766FE03B05DF804FB00004C
:103F900037B50220FDF792FD144C154D40002870F6
:103FA000A188206800F0CFFD10B905238DF80430FA
:103FB000A188206800F0C7FD10B10A238DF80430F5
:103FC0002B7800208DF80530FF238DF806300F2365
:103FD0008DF80730FEF7A4FE042340F23D210DEBDF
:103FE0000302FEF737FE03B030BD00BF54070020C8
:103FF000B8070020D92307B58DF800308C238DF841
:10400000013001238DF80230B5238DF803304A23A7
:104010008DF80430C1238DF805300A238DF8063061
:10402000E02300208DF80730FEF77AFE08236A4669
:1040300040F25D21FEF70EFE03B05DF804FB0000C8
:1040400007B50020FDF742FD0F4901F09DFE02F08B
:1040500011F80E4B80B218808DF80000000A8DF820
:10406000010000208DF802008DF803008DF8040097
:10407000FEF756FE05236A4640F2B221FEF7EAFD3E
:1040800003B05DF804FB00BF00007A440008002084
:104090002C2307B58DF80030B6238DF80130A82306
:1040A000022200208DF802307F238DF804208DF845
:1040B00003308DF805308DF806008DF80700FEF707
:1040C0002FFE08236A4640F22131FEF7C3FD03B0FC
:1040D0005DF804FB302313B58DF805302923042443
:1040E0008DF80630072300208DF807308DF8044046
:1040F000FEF716FE234640F233310DEB0402FEF7C5
:10410000A9FD02B010BD000013B50D20FDF7DEFCC7
:10411000154901F039FE01F0ADFF144B80B2188053
:1041200009238DF8003062238DF801302C238DF89F
:104130000530122308248DF806305A238DF802002A
:10414000000A60F066008DF8030000208DF807304B
:104150008DF80440FEF7E4FD23466A4640F2A131A3
:10416000FEF778FD02B010BD0000C842DC07002059
:1041700013B5254C207820B3E5238DF800300D23AE
:104180008DF80130EB238DF80230FF238DF80330DA
:104190000C238DF8043066238DF80530BB238DF891
:1041A0000630112300208DF80730FEF7B9FD0823F3
:1041B0006A4640F2B231FEF74DFD0023237002B093
:1041C00010BDE3238DF800305D238DF80130FB2313
:1041D0008DF80230FF238DF803300C238DF8043066
:1041E00066238DF80530BB238DF8063006238DF845
:1041F0000730FEF795FD08236A4640F2B231FEF71C
:1042000029FD0123DAE700BFC406002037B5334C8F
:10421000334D22782B781201B3B33F218DF8021071
:10422000702114238DF803109F218DF800308DF834
:1042300004100023012142F00A028DF805108DF8C8
:10424000062069461A468DF8013011F8010B01323B
:104250000344072A9BB2F8D103F24A5300208DF899
:104260000730FEF75DFD08236A4640F24551FEF730
:10427000F1FC00232B7023780133DBB20F2B88BFB6
:104280000023237003B030BD032164208DF800109B
:1042900019218DF8020032208DF801108DF80410DC
:1042A0008DF8062069461A468DF803008DF8053012
:1042B00011F8010B01320344072A9BB2F8D103F233
:1042C0004A5300208DF80730FEF72AFD08236A467E
:1042D00040F24551FEF7BEFC0123CBE7D00700209A
:1042E000C506002038B50E20FDF7E8FB0B4D295C14
:1042F0003220FDF703FC0F20FDF7F6FB044658B90A
:10430000074B014618703320FDF7F8FB23460134B4
:104310000A2C05F8013BFAD138BD00BF0208002085
:10432000FC0700208368DB075EBF836843F001035E
:10433000836070478368DB0742BF836843F00103F3
:1043400083607047034AD2F8083443F40003C2F88C
:104350000834704700200140836800F1080243F0F0
:104360000803836013681B07FCD47047836843F01D
:104370000403836070478068C0F38000704708B50D
:104380000246FFF7F3FF1046FFF7F5FF0028FAD1CA
:1043900008BD0022134610B501FA02F403321E2AAA
:1043A00043EA0403F8D10022036101FA02F4033264
:1043B000182A43EA0403F8D1C36010BD836823F0D0
:1043C000010383607047436843F480734360704720
:1043D000836823F4006383607047836843F00203BB
:1043E000836070471029F0B510D800246FF03B06A9
:1043F0004FF0010C274623465FFA8CF5A94206D2FE
:10440000013943EA0153C36207634463F0BD062DDB
:104410000AD8157806F13C0E05FA0EF52C430CF17E
:10442000010C01320536E7E7073D052D15789BBFE6
:1044300006F11E0E05FA0EF5B5402F4388BF2B433B
:10444000EDE7836843F4807383607047044B9842C0
:104450000CBF40F2192040F21A2000F0E1BC00BF6E
:10446000006400402DE9F3410468884624F002040A
:1044700004600468964644F0010404604FF6FF743B
:104480009DF820C09DF824109DF828209DF83C60E0
:104490009DF840700194019C051D013C019414B1EC
:1044A0004468E407F7D52C68E4076ED50024C4619E
:1044B0000468B8F1000F4FD044F080040460046831
:1044C000BEF1000F4BD044F040040460002B49D0F3
:1044D000036843F0200303600368BCF1000F45D07C
:1044E00043F0100303600368002942D043F008033F
:1044F00003600368002A3FD043F004030360C369EC
:10450000002F3CD043F00043C361C369002E39D073
:1045100043F08043C3610E9B0D99013BC3F3090334
:104520000B430C99C2690B430B990B431343C361B3
:10453000036823F0010303604FF6FF730193019BAF
:10454000013B019313B12B68DB07F8D4286800F016
:10455000010002B0BDE8F08124F08004AEE724F051
:104560004004B2E7036823F02003B4E723F010030C
:10457000B8E723F00803BBE723F00403BEE723F00A
:104580000043C1E723F08043C4E70120E1E70000D6
:10459000F0B50125244C9DF81C70D4F800668540C8
:1045A00046F00106C4F80066D4F81CE6EE432EEA95
:1045B000050EC4F81CE641B3D4F80C162943C4F820
:1045C0000C1632B3D4F804262A4300F1006000F63A
:1045D000C840C4F80426C0000360069A059B4360E7
:1045E000114BD2B1D3F814262A43C3F8142627B1AD
:1045F000D3F81C261543C3F81C560B4AD2F80036D4
:1046000023F00103C2F80036F0BDD4F80C16314097
:10461000D5E7D4F804263240D7E7D3F8142616405D
:10462000C3F81466E3E700BF0060004030B4BDF893
:1046300008409DF8105044EA0344049542EA0143BF
:104640000294012230BC0021FFF7A2BF1FB50092E7
:1046500001229DF81840CDE901340B461146FFF7C1
:1046600097FF04B010BD43690B4343617047436932
:1046700023EA0103436170472DE9F04180468068D9
:104680009DF818E04501079E2AD4D8F808000401D7
:104690002AD4D8F80800C00050D54FF4D0750220B5
:1046A00005EB080422B3C90041F0040145F80810E5
:1046B0001BB1236843F002032360636823F00F03F8
:1046C000636062680EF00F03134363600EF1FF3303
:1046D000072B2AD8DFE803F02623201B1815120E1B
:1046E0004FF4C0750020DBE74FF4C8750120D7E711
:1046F0004905DBE70027F37963F31F67B37963F3B9
:104700001747737963F30F27337963F307074FF084
:10471000000CF37863F31F6CB37863F3174C737872
:1047200063F30F2C337863F3070CC4F808C0E76019
:10473000236843F001032360BDE8F0814FF0FF30B0
:10474000FAE721B9C36843F02003C36070470369E7
:1047500043F020030361704719B9C06800F00300FB
:1047600070470069FAE72DE9F347DDF828A0044611
:10477000DDE90E56FFF7F0FF884681464FF4E07101
:104780004FF4D870CDE9000102A901EB880151F87E
:10479000081C6058671810F0040015BF01208AF843
:1047A00000008AF80000605816BF6058400DC0082D
:1047B000186061580B9BC1F34001197079680C9B1C
:1047C000090A197079680D9B01F00F01197016B173
:1047D0007B681B0C3380BE68FB68C6F307216970D9
:1047E000C6F30741A970C3F307212E702B71C6F3DE
:1047F00007666971C3F30741C3F30763EE70A971DC
:10480000EB711AB141462046FFF79BFF484602B0C4
:10481000BDE8F087024A936843F001039360704754
:1048200000300240014B18601868704700300240A9
:10483000002310B5044A8B4201DB106810BD50F80C
:10484000234001331460F6E700300240014BB3F817
:10485000E007704700F0FF1F14230022013903FB1B
:1048600001039A60DA601A615A610F234268890075
:1048700003FA01F11143416070470139890002FADE
:1048800001F14160704701390368890002FA01F1C2
:10489000194214BF012000207047142301395943E5
:1048A000083010B50C5824F440640C500B581343D6
:1048B0000B5010BD142301395943083010B50C5862
:1048C00024F440740C500B5813430B5010BD1423A8
:1048D0000139594308300B5843F080030B5070479F
:1048E00014230139594308300B5843F020030B506F
:1048F0000B5823F480430B5070471423013959435C
:1049000008300B5843F010030B5070471423013943
:10491000594308300B5843F001030B5070471423E0
:104920000139594308300B5823F001030B507047ED
:104930001423013903FB01008368DB0758BF0261C0
:1049400070471423013903FB01008368DB0758BF5C
:10495000426170471423013959430C30085880B222
:1049600070471423013959430C300A507047000036
:1049700038B5064DEC68FFF769FFB0F5007F84BFDE
:10498000E86C044304F0350038BD00BF002002404D
:1049900038B504460D4600F085F8FFF757FFB0F52F
:1049A000007F124B17D9124A944214D91A6D42F063
:1049B00001021A65258000F075F8FFF747FFB0F592
:1049C000007F0A4B0CD90A4A944209D91A6D22F089
:1049D00001021A6538BD1A6942F001021A61E9E75D
:1049E0001A6922F001021A61F4E700BF00200240B8
:1049F000FFFF070810B5044600F054F8FFF726FF44
:104A0000B0F5007F164B1BD9164A944218D91A6D7F
:104A100042F002021A655C651A6D42F040021A65A6
:104A200000F040F8FFF712FFB0F5007F0C4B11D9F2
:104A30000C4A94420ED91A6D22F002021A6510BD7A
:104A40001A6942F002021A615C611A6942F040027E
:104A50001A61E5E71A6922F002021A61EFE700BF66
:104A600000200240FFFF0708034A136823F00703F2
:104A700003431360704700BF00200240034B044A09
:104A80005A6002F188325A60704700BF002002402D
:104A900023016745024A136943F08003136170479D
:104AA0000020024008B5FFF763FFC307FBD408BD31
:104AB00038B505460C4689B2FFF76AFF210CA81CE1
:104AC000BDE83840FFF764BF2DE9F04100264FF004
:104AD0000F0E9C46036847684CFA06F4E4071BD5A2
:104AE000072E94BF9846B846B4B24FEA84048ABFF2
:104AF000203CA4B2A4B20EFA04F528EA0508A51CCD
:104B0000ADB202FA05F501FA04F42C4344EA0804B4
:104B1000072E94BF234627460136102EDCD10360B2
:104B20004760BDE8F0810000034A536823F0E0636A
:104B30000B4303435360704700000140016170471D
:104B4000090401617047806808407047C36801EA42
:104B5000030221EA030141EA0241016170470000BA
:104B60004AF6AA22014B1A60704700BF003000408D
:104B7000062824D8DFE800F004090E13181D2000D1
:104B8000104B1868C0F3406070470E4B1868C0F3B4
:104B9000C06070470B4B1868C0F340707047094BFA
:104BA0001868C0F340407047064B1868C0F34000D7
:104BB0007047044B186AF9E7024B586AF6E7002081
:104BC000704700BF00100240024608B51046FFF7CC
:104BD000CFFF0028FAD008BD06282AD8DFE800F069
:104BE000040A0F14191E2400124A136843F080733C
:104BF000136070470F4A136843F08063F8E70D4A6B
:104C0000136843F08053F3E70A4A136843F4803390
:104C1000EEE7084A136843F00103E9E7054A136A1F
:104C200043F0010313627047024A536A43F00103E1
:104C30005362704700100240034A536823F0030395
:104C400003435360704700BF00100240034A53689B
:104C500023F4701343EA804353607047001002400E
:104C6000034A536823F4803343EA00435360704798
:104C700000100240034A536823F4003343EA4043E0
:104C80005360704700100240024B186A00F4004065
:104C9000704700BF00100240024A136A43F4004309
:104CA000136270470010024006283BD8DFE800F08E
:104CB00035353525350415001B4B1A6A42F00102C3
:104CC0001A621A6A9007FCD51A6A22F440721A62B4
:104CD0001A6A42F480721A627047134B5A6A42F0A1
:104CE00001025A625A6A9107FCD51A6A22F440728C
:104CF0001A621A6A42F40072EDE70B4B1A6842F42A
:104D000080321A601A689203FCD51A6A22F4407243
:104D10001A621A6A42F44072DDE7034A136A23F406
:104D200040731362704700BF00100240034A53688B
:104D300023F4404343EA803353607047001002403D
:104D4000034A536823F4605343EAC0235360704717
:104D500000100240034A536823F4E06343EA00234F
:104D60005360704700100240034A536823F0F00379
:104D700043EA0013536070470010024008B5042056
:104D8000FFF72AFFFFF720FF0020FFF755FF032062
:104D9000FFF722FFFFF718FF0120FFF74DFF00206C
:104DA000FFF7E2FF0320FFF7C1FF0420FFF7D2FF68
:104DB0000020FFF7C5FF0220FFF756FE0720FFF790
:104DC00045FF0120FFF74CFF0020FFF753FFFFF7DF
:104DD00003FFFFF7F9FE0220FFF72EFF044B054A01
:104DE00005491360054A1160054A136008BD00BFFC
:104DF00000A24A04C806002000512502CC0600206B
:104E0000D00600200122430903F1804303F5043357
:104E1000196800F01F0002FA00F00843186070479C
:104E20000122430903F1804303F50433196800F0BC
:104E30001F0002FA00F0014319601A6822EA00001C
:104E400018607047054BD3F804289206FBD5D3F8B9
:104E5000042842F01002C3F80428704700200040E4
:104E6000054BD3F8042822F01002C3F80428D3F825
:104E700004289206FBD570470020004038B5044650
:104E800000254FF46770FFF7BDFF40F29B30FFF73E
:104E9000B9FF00F035FB2046124CFFF705FFC4F8C0
:104EA0000058C4F80458FFF7F7FEFFF7CBFF4FF6A2
:104EB000FF73C4F80858C4F80C58C4F81858C4F85C
:104EC0001C58C4F82038C4F82438FFF7C9FFD4F8B8
:104ED000043823F00803C4F80438D4F804381B0756
:104EE000FBD538BD0020004008B5FFF7ABFF064BEF
:104EF00082B2C0F30340C3F80C28C3F80808BDE829
:104F00000840FFF7ADBF00BF00200040034BD3F8BF
:104F10001808D3F81C3843EA0040704700200040CE
:104F200008B5FFF78FFF054B020C80B2C3F81828B5
:104F3000C3F81C08BDE80840FFF792BF00200040FE
:104F400008B54FF46770FFF75DFF40F29B30FFF745
:104F500059FF00F0D5FA084BD3F8042822F00802D4
:104F6000C3F80428D3F804281107FBD5D3F8042884
:104F70009206FBD508BD00BF0020004038B50546AD
:104F80004FF467700C46FFF73DFF40F29B30FFF790
:104F900039FFFFF779FE18B1BDE83840FFF7D0BF01
:104FA0002846FFF76BFF2046BDE83840FFF79CBF5F
:104FB000C3680B43C360704703690B4214BF0120F1
:104FC00000207047C94301617047036843F08003C4
:104FD00003607047036823F01003036070470368A1
:104FE00043F0010303607047036823F0010303608B
:104FF000704781627047C162704706297AD8DFE83E
:1050000001F00479337963799200836923F0030313
:10501000836183698361836923F070038361072A55
:1050200068D8DFE802F03304090D1115191D8369F2
:1050300043F0100383617047836943F02003F9E76D
:10504000836943F03003F5E7836943F04003F1E7F8
:10505000836943F05003EDE7836943F06003E9E7B8
:10506000836943F07003E5E7836923F44073836148
:1050700083698361836923F4E0438361072A39D814
:10508000DFE802F004060A0E12161A1E8369D1E741
:10509000836943F48053CDE7836943F40053C9E740
:1050A000836943F44053C5E7836943F48043C1E710
:1050B000836943F4A043BDE7836943F4C043B9E780
:1050C000836943F4E043B5E7C36923F00303C36195
:1050D000C369C361C36923F07003C361072A09D898
:1050E000DFE802F03304090D1115191DC36943F0FF
:1050F0001003C3617047C36943F02003F9E7C36934
:1051000043F03003F5E7C36943F04003F1E7C369B7
:1051100043F05003EDE7C36943F06003E9E7C36977
:1051200043F07003E5E7C36923F44073C361C369C7
:10513000C361C36923F4E043C361072ADAD8DFE817
:1051400002F004060A0E12161A1EC369D1E7C369DB
:1051500043F48053CDE7C36943F40053C9E7C369FF
:1051600043F44053C5E7C36943F48043C1E7C369CF
:1051700043F4A043BDE7C36943F4C043B9E7C3693F
:1051800043F4E043B5E7062909D8DFE801F0041548
:1051900009190D1D1100036A23F002030362704711
:1051A000036A23F02003F9E7036A23F40073F5E7A9
:1051B000036A23F40053F1E7036A23F00803EDE7E1
:1051C000036A23F08003E9E7036A23F40063E5E759
:1051D000062909D8DFE801F0041509190D1D110091
:1051E000036A43F0020303627047036A43F020033B
:1051F000F9E7036A43F40073F5E7036A43F40053E5
:10520000F1E7036A43F00803EDE7036A43F0800324
:10521000E9E7036A43F40063E5E706290CD8DFE811
:1052200001F0040B060B080B0A004263704782630F
:105230007047C26370470264704743690B43436120
:105240007047406A7047022906D0032906D0012919
:1052500014BF406B806B7047C06B7047006C704729
:105260004162704703291CD8DFE801F0020B131CD0
:10527000836923F0F0038361836943EA0212826148
:105280007047836923F470438361836943EA023280
:10529000F5E7C36923F0F003C361C36943EA02126F
:1052A000C2617047C36923F47043C361C36943EAB1
:1052B0000232F5E701F0FD03012B02F0030204D1F5
:1052C000531E012B98BF82F0030203291AD8DFE88E
:1052D00001F0020A121A836923F0030383618369D0
:1052E0001A4382617047836923F440738361836941
:1052F00043EA0222F5E7C36923F00303C361C369EC
:105300001A43C2617047C36923F44073C361C36920
:1053100043EA0222F5E78B000121026A994011431A
:1053200001627047836819B143F40043836070479A
:1053300023F40043FAE7836823F00703836083685C
:10534000194381607047836823F07003836083682A
:105350001943816070470000064A074B90421B6862
:1053600004BF064B1B6803EB5103B3FBF1F38360EF
:10537000704700BF00380140CC060020D006002056
:10538000C36808290CBF23F4805343F48053C360DF
:105390007047036923F440530B4303617047C368AC
:1053A00023F4C0630B43C3607047C36823F00C034E
:1053B0000B43C3607047436923F440730B4343615D
:1053C0007047C36843F40053C360704738B5044660
:1053D0000D4600F018F829462046BDE8384000F098
:1053E0000AB8436943F0400343617047436943F09F
:1053F000800343617047C1F3080141607047406812
:10540000C0F30800704703681B06FCD570470368AB
:105410000B4214BF012000207047FEE770470000D8
:1054200038B51A4A1A4B1B498B421AD300211A4A23
:1054300093421BD34FF0E022D2F8143D174C43F4B3
:105440000073174DC2F8143DAC4212D3154C164DE3
:10545000AC4212D3FCF7AEF8144C154DAC4210D34D
:1054600038BD52F8040B43F8040BDDE743F8041B86
:10547000DEE754F8043B9847E6E754F8043B9847C6
:10548000E6E754F8043B9847E8E700BF607100087E
:1054900000000020D40600201008002054710008ED
:1054A00054710008547100086071000860710008B0
:1054B000607100084FF0E023014AC3F80C2DFEE7AD
:1054C0000400FA05012243099B0003F1604300F048
:1054D0001F0003F5614302FA00F0186070470000F6
:1054E000432893BF00F16040044B00F00F0000F52B
:1054F00064408CBFC1540170704700BF14ED00E0E0
:10550000024A136843F480731360704700700040D0
:1055100070B54FF0FF0C4CF4E06C1CEA11541DBF49
:105520001CEA135594EA0C0F95EA0C0F00F0DEF814
:105530002C4481EA030621EA4C5123EA4C5350EAF9
:10554000013518BF52EA033541F4801143F480134A
:1055500038D0A0FB02CE4FF00005E1FB02E506F0DB
:105560000042E0FB03E54FF00006E1FB03569CF030
:10557000000F18BF4EF0010EA4F1FF04B6F5007F36
:1055800064F5407404D25FEA4E0E6D4146EB0606A8
:1055900042EAC62141EA55514FEAC52040EA5E5031
:1055A0004FEACE2EB4F1FD0C88BFBCF5E06F1ED8DB
:1055B000BEF1004F08BF5FEA500E50F1000041EB12
:1055C000045170BD06F0004646EA010140EA0200BF
:1055D00081EA0301B4EB5C04C2BFD4EB0C0541EAE1
:1055E000045170BD41F480114FF0000E013C00F3F6
:1055F000AB8014F1360FDEBF002001F0004170BD1A
:10560000C4F10004203C35DA0C341BDC04F1140432
:10561000C4F1200500FA05F320FA04F001FA05F2BE
:1056200040EA020001F0004221F0004110EBD3708B
:1056300021FA04F642EB06015EEA430E08BF20EAB7
:10564000D37070BDC4F10C04C4F1200500FA04F35A
:1056500020FA05F001FA04F240EA020001F00041EC
:1056600010EBD37041F100015EEA430E08BF20EA5F
:10567000D37070BDC4F1200500FA05F24EEA020EA7
:1056800020FA04F301FA05F243EA020321FA04F0D6
:1056900001F0004121FA04F220EA020000EBD3708D
:1056A0005EEA430E08BF20EAD37070BD94F0000F8D
:1056B0000FD101F00046400041EB010111F4801FC1
:1056C00008BF013CF7D041EA060195F0000F18BF72
:1056D000704703F00046520043EB030313F4801FAE
:1056E00008BF013DF7D043EA0603704794EA0C0F68
:1056F0000CEA135518BF95EA0C0F0CD050EA41067E
:1057000018BF52EA4306D1D181EA030101F00041FA
:105710004FF0000070BD50EA410606BF1046194622
:1057200052EA430619D094EA0C0F02D150EA01362E
:1057300013D195EA0C0F05D152EA03361CBF10466F
:1057400019460AD181EA030101F0004141F0FE410E
:1057500041F470014FF0000070BD41F0FE4141F492
:10576000780170BD81F0004102E000BF83F000438A
:1057700030B54FEA41044FEA430594EA050F08BFEC
:1057800090EA020F1FBF54EA000C55EA020C7FEAB0
:10579000645C7FEA655C00F0E2804FEA5454D4EB2D
:1057A0005555B8BF6D420CDD2C4480EA020281EAF7
:1057B000030382EA000083EA010180EA020281EA2F
:1057C0000303362D88BF30BD11F0004F4FEA013181
:1057D0004FF4801C4CEA113102D0404261EB410190
:1057E00013F0004F4FEA03334CEA133302D0524216
:1057F00063EB430394EA050F00F0A780A4F10104D2
:10580000D5F1200E0DDB02FA0EFC22FA05F280180B
:1058100041F1000103FA0EF2801843FA05F35941F1
:105820000EE0A5F120050EF1200E012A03FA0EFC70
:1058300028BF4CF0020C43FA05F3C01851EBE3719A
:1058400001F0004507D54FF0000EDCF1000C7EEBB7
:1058500000006EEB0101B1F5801F1BD3B1F5001FF5
:105860000CD349085FEA30004FEA3C0C04F1010414
:105870004FEA445212F5800F80F09A80BCF1004F3D
:1058800008BF5FEA500C50F1000041EB045141EABF
:10589000050130BD5FEA4C0C404141EB0101013C88
:1058A00028BFB1F5801FE9D291F0000F04BF014677
:1058B0000020B1FA81F308BF2033A3F10B03B3F149
:1058C00020020CDA0C3208DD02F1140CC2F10C02D9
:1058D00001FA0CF021FA02F10CE002F11402D8BF37
:1058E000C2F1200C01FA02F120FA0CFCDCBF41EA03
:1058F0000C019040E41AA2BF01EB0451294330BDD2
:105900006FEA04041F3C1CDA0C340EDC04F11404AE
:10591000C4F1200220FA04F001FA02F340EA030085
:1059200021FA04F345EA030130BDC4F10C04C4F1CB
:10593000200220FA02F001FA04F340EA03002946AB
:1059400030BD21FA04F0294630BD94F0000F83F4F5
:10595000801306BF81F480110134013D4EE77FEAD8
:10596000645C18BF7FEA655C29D094EA050F08BF24
:1059700090EA020F05D054EA000C04BF1946104605
:1059800030BD91EA030F1EBF0021002030BD5FEA49
:10599000545C05D14000494128BF41F0004130BD71
:1059A00014F580043CBF01F5801130BD01F00045C5
:1059B00045F0FE4141F470014FF0000030BD7FEA38
:1059C000645C1ABF194610467FEA655C1CBF0B4633
:1059D000024650EA013406BF52EA033591EA030F4A
:1059E00041F4002130BD00BF90F0000F04BF002142
:1059F000704730B54FF4806404F132044FF0000575
:105A00004FF0000150E700BF90F0000F04BF0021ED
:105A1000704730B54FF4806404F1320410F0004553
:105A200048BF40424FF000013EE700BF42004FEA4E
:105A3000E2014FEA31014FEA02701FBF12F07F43CB
:105A400093F07F4F81F06051704732F07F4208BF82
:105A5000704793F07F4F04BF41F40021704730B589
:105A60004FF4607401F0004521F000411CE700BFD5
:105A700050EA010208BF704730B54FF000050AE058
:105A800050EA010208BF704730B511F0004502D559
:105A9000404261EB41014FF4806404F132045FEA5B
:105AA000915C3FF4D8AE4FF003025FEADC0C18BF04
:105AB00003325FEADC0C18BF033202EBDC02C2F1F6
:105AC000200300FA03FC20FA02F001FA03FE40EA88
:105AD0000E0021FA02F11444BDE600BF4FEA410274
:105AE00012F5001215D211D56FF47873B3EB625230
:105AF00012D94FEAC12343F0004343EA505311F057
:105B0000004F23FA02F018BF404270474FF00000E8
:105B1000704750EA013005D111F0004008BF6FF026
:105B2000004070474FF00000704700BF4A0011D29C
:105B300012F5001211D20DD56FF47873B3EB6252E7
:105B40000ED44FEAC12343F0004343EA505323FAF3
:105B500002F070474FF00000704750EA013002D168
:105B60004FF0FF3070474FF00000704780F000406A
:105B700002E000BF81F0004142001FBF5FEA410325
:105B800092EA030F7FEA226C7FEA236C6AD04FEA25
:105B90001262D2EB1363C1BFD2184140484041406A
:105BA000B8BF5B42192B88BF704710F0004F40F41C
:105BB000000020F07F4018BF404211F0004F41F438
:105BC000000121F07F4118BF494292EA030F3FD004
:105BD000A2F1010241FA03FC10EB0C00C3F1200317
:105BE00001FA03F100F0004302D5494260EB4000A6
:105BF000B0F5000F13D3B0F1807F06D340084FEA11
:105C0000310102F10102FE2A51D2B1F1004F40EB05
:105C1000C25008BF20F0010040EA0300704749006D
:105C200040EB0000013A28BFB0F5000FEDD2B0FA0A
:105C300080FCACF1080CB2EB0C0200FA0CF0AABF2D
:105C400000EBC25052421843BCBFD04018437047CB
:105C500092F0000F81F4000106BF80F400000132D1
:105C6000013BB5E74FEA41037FEA226C18BF7FEAA8
:105C7000236C21D092EA030F04D092F0000F08BFEA
:105C80000846704790EA010F1CBF0020704712F0D1
:105C90007F4F04D1400028BF40F00040704712F110
:105CA00000723CBF00F50000704700F0004343F075
:105CB000FE4040F4000070477FEA226216BF0846AB
:105CC0007FEA23630146420206BF5FEA412390EA6E
:105CD000010F40F4800070474FF0000304E000BF64
:105CE00010F0004348BF40425FEA000C08BF704715
:105CF00043F0964301464FF000001CE050EA0102D9
:105D000008BF70474FF000030AE000BF50EA0102ED
:105D100008BF704711F0004302D5404261EB4101DA
:105D20005FEA010C02BF84460146002043F0B643FF
:105D300008BFA3F18053A3F50003BCFA8CF2083A24
:105D4000A3EBC25310DB01FA02FC634400FA02FC2D
:105D5000C2F12002BCF1004F20FA02F243EB020034
:105D600008BF20F00100704702F1200201FA02FC96
:105D7000C2F1200250EA4C0021FA02F243EB020089
:105D800008BF20EADC7070474FF0FF0C1CEAD052CD
:105D90001EBF1CEAD15392EA0C0F93EA0C0F6FD08E
:105DA0001A4480EA010C400218BF5FEA41211ED06C
:105DB0004FF0006343EA501043EA5111A0FB013158
:105DC0000CF00040B1F5000F3EBF490041EAD3712D
:105DD0005B0040EA010062F17F02FD2A1DD8B3F1A9
:105DE000004F40EBC25008BF20F00100704790F018
:105DF000000F0CF0004C08BF49024CEA502040EA6A
:105E000051207F3AC2BFD2F1FF0340EAC25070472F
:105E100040F400004FF00003013A5DDC12F1190F6D
:105E2000DCBF00F000407047C2F10002410021FADF
:105E300002F1C2F1200200FA02FC5FEA310040F1F7
:105E4000000053EA4C0308BF20EADC70704792F070
:105E5000000F00F0004C02BF400010F4000F013AA8
:105E6000F9D040EA0C0093F0000F01F0004C02BFA3
:105E7000490011F4000F013BF9D041EA0C018FE712
:105E80000CEAD15392EA0C0F18BF93EA0C0F0AD018
:105E900030F0004C18BF31F0004CD8D180EA01003E
:105EA00000F00040704790F0000F17BF90F0004FD7
:105EB000084691F0000F91F0004F14D092EA0C0FB9
:105EC00001D142020FD193EA0C0F03D14B0218BF4C
:105ED000084608D180EA010000F0004040F0FE4092
:105EE00040F40000704740F0FE4040F4400070472E
:105EF0004FF0FF0C1CEAD0521EBF1CEAD15392EAAD
:105F00000C0F93EA0C0F69D0A2EB030280EA010C9C
:105F100049024FEA402037D04FF0805343EA111135
:105F200043EA10130CF000408B4238BF5B0042F193
:105F30007D024FF4000C8B4224BF5B1A40EA0C0038
:105F4000B3EB510F24BFA3EB510340EA5C00B3EB6A
:105F5000910F24BFA3EB910340EA9C00B3EBD10F58
:105F600024BFA3EBD10340EADC001B0118BF5FEAAA
:105F70001C1CE0D1FD2A3FF650AF8B4240EBC250D3
:105F800008BF20F0010070470CF0004C4CEA502094
:105F90007F32C2BFD2F1FF0340EAC250704740F4E3
:105FA00000004FF00003013A37E792F0000F00F0D5
:105FB000004C02BF400010F4000F013AF9D040EA53
:105FC0000C0093F0000F01F0004C02BF490011F4E7
:105FD000000F013BF9D041EA0C0195E70CEAD153DF
:105FE00092EA0C0F08D142027FF47DAF93EA0C0FC6
:105FF0007FF470AF084676E793EA0C0F04D14B02AA
:106000003FF44CAF08466EE730F0004C18BF31F05B
:10601000004CCAD130F000427FF45CAF31F0004355
:106020007FF43CAF5FE700BF4FEA4002B2F1FE4FA2
:106030000FD34FF09E03B3EB12620DD94FEA00234A
:1060400043F0004310F0004F23FA02F018BF404223
:1060500070474FF00000704712F1610F01D142020A
:1060600005D110F0004008BF6FF0004070474FF0BE
:106070000000704742000ED2B2F1FE4F0BD34FF03A
:106080009E03B3EB126209D44FEA002343F00043AE
:1060900023FA02F070474FF00000704712F1610FD1
:1060A00001D1420202D14FF0FF3070474FF00000A3
:1060B000704700BF000204064368617267657200A2
:1060C00070616373706E74006B57006964636C6910
:1060D0006D0041006961636C696D00696463737090
:1060E0006E740075646373706E740056007564633B
:1060F0006C696D0074696D656C696D006D696E75B4
:106100007465730074696D65646C7900696E70758F
:106110007479706500303D54797065322C20323DC1
:1061200054797065312C20333D4D616E75616C0082
:1061300063616E636F6E74726F6C00303D4F6666A4
:106140002C20313D4F6E006964636B70006964639D
:106150006B6900616374697661746500303D4E6FF0
:106160006E652C20313D436861726765722C203268
:106170003D44432D44432C20333D426F746800441A
:10618000432F444320436F6E7665727465720075C9
:10619000646364630047656E6572616C00416C65A1
:1061A00072744C6F67006F706D6F646500303D4FA7
:1061B00066662C20313D52756E0073746174650003
:1061C000303D4F66662C20313D57616974537461D0
:1061D00072742C20323D456E61626C652C20333D1B
:1061E00041637469766174652C20343D52756E2C60
:1061F00020353D53746F700076657273696F6E0061
:10620000343D312E31362E5200757074696D650043
:106210006C61737465727200756175780075736571
:106220007261636C696D00687761636C696D0063AE
:1062300061626C656C696D00657673656C696D0093
:10624000706F776572616300706F77657264636405
:10625000630075646300756C760075616300696145
:106260006300696463006964636463004368674151
:10627000434C696D005043535F5479706500303D65
:106280003438415F31502C20313D3332415F315041
:106290002C20323D3136415F3350004348475F5335
:1062A00054415400303D496E69742C20313D49649D
:1062B0006C652C20323D537461727475702C2033E0
:1062C0003D5761697441432C20343D5175616C69BF
:1062D00066792C20353D436F6E6669672C20363D0C
:1062E000456E61626C652C20373D53687574646F30
:1062F000776E2C20383D4661756C7465642C2039AE
:106300003D434C524661756C74730043484750419D
:106310007661696C004772696443464700303D4EC0
:106320006F6E652C20313D31502C20323D33502C86
:1063300020333D3350440070726F78696D69747911
:106340000063616E656E61626C650043686741540D
:10635000656D700043004368674254656D7000438B
:1063600068674354656D70004443444354656D70E1
:1063700000444344434254656D7000504353416DA3
:106380006254656D70006D6F64656C636F64650069
:1063900034353D45552C2039333D5553005043533A
:1063A000426F6F740064696700504353416C6572BB
:1063B000747300303D4E6F6E652C20313D3031637B
:1063C00068674877496E7075744F632C20323D3092
:1063D0003263686748774F75747075744F632C200B
:1063E000333D30336368674877496E7075744F7614
:1063F0002C20343D30346368674877496E744275A9
:10640000734F762C20353D30356368674F75747057
:1064100075744F762C20363D303663686750726550
:106420006368617267654661696C65645363722C69
:1064300020373D3037636867506861736554656D18
:1064400070486F742C20383D30386368675068613D
:1064500073654F76657254656D702C20393D303907
:1064600063686750666343757272656E74526567E0
:10647000756C6174696F6E2C2031303D313063680A
:1064800067496E7442757356526567756C617469BD
:106490006F6E2C2031313D31316368674C6C634342
:1064A000757272656E74526567756C6174696F6E32
:1064B0002C2031323D313263686750666349426156
:1064C0006E645472616365724661756C742C203120
:1064D000333D313363686750726563686172676525
:1064E0004661696C6564426F6F73742C2031343D72
:1064F000313463686754656D70526174696F6E61A1
:106500006C6974792C2031353D31356368673132DF
:106510007655762C2031363D3136636867416C6C98
:106520005068617365734661756C7465642C2031C5
:10653000373D313763686757616C6C506F776572B0
:1065400052656D6F76616C2C2031383D313863684F
:1065500067556E6B6E6F776E47726964436F6E66D8
:1065600069672C2031393D31396163436861726755
:1065700065506F7765724C696D697465642C203263
:10658000303D3230636867456E61626C654C696EA0
:10659000654D69736D617463682C2032313D323111
:1065A0006876704D69612C2032323D3232626D73F3
:1065B0004D69612C2032333D323363704D69612C5B
:1065C0002032343D3234766366726F6E744D696189
:1065D0002C2032353D3235637075324D616C6675F5
:1065E0006E6374696F6E2C2032363D32367761747B
:1065F0006368646F67416C61726D65642C2032372B
:106600003D3237636867496E7375666669636965AD
:106610006E74436F6F6C696E672C2032383D323870
:106620006368674F757470757455762C2032393DE8
:106630003239636867506F776572526174696F6E43
:10664000616C6974792C2033303D333063616E5254
:106650006174696F6E616C6974792C2033313D33DC
:106660003175694D69612C2033323D3332756E7559
:106670007365642C2033333D33336876427573552C
:10668000762C2033343D333468764275734F762C44
:106690002033353D33356C7642757355762C203377
:1066A000363D33366C764275734F762C2033373D4A
:1066B00033377265736F6E616E7454616E6B4F63C6
:1066C0002C2033383D3338636C614661756C7465DA
:1066D000642C2033393D333973644D6F64756C65B8
:1066E000436C6B4661756C742C2034303D343064DF
:1066F0006364634D6178506F77657252656163685A
:1067000065642C2034313D3431646364634F7665B5
:106710007254656D702C2034323D3432646364638E
:10672000456E61626C654C696E654D69736D61742F
:1067300063682C2034333D3433687642757350726D
:10674000656368617267654661696C7572652C2066
:1067500034343D3434313276537570706F72745204
:106760006567756C6174696F6E2C2034353D343506
:1067700068764275734C6F77496D706564616E63BE
:10678000652C2034363D3436687642757348696727
:1067900068496D706564656E63652C2034373D34DF
:1067A000376C764275734C6F77496D706564616EB6
:1067B00063652C2034383D34386C764275734869F3
:1067C0006768496D706564616E63652C2034393D7E
:1067D00034396463646354656D70526174696F6EBB
:1067E000616C6974792C2035303D353064636463A5
:1067F000313256737570706F72744661756C746562
:10680000642C2035313D3531636867496E744275BB
:106810007355762C2035323D35326163566F6C747A
:106820006167654E6F7450726573656E742C2035A8
:10683000333D3533636867496E7075745644726FC3
:1068400070486967682C2035343D35346368674982
:106850006E7075745644726F70546F6F48696768D4
:106860002C2035353D35356368674C696E65496D5B
:106870006564616E6365486967682C2035363D350F
:10688000366368674C696E65496D6564616E636502
:10689000546F6F486967682C2035373D353763681A
:1068A00067496E7075744F766572467265712C20FB
:1068B00035383D3538636867496E707574556E6458
:1068C0006572467265712C2035393D3539636867CC
:1068D000496E7075744F76526D732C2036303D368C
:1068E00030636867496E7075744F765065616B2CC4
:1068F0002036313D3631636867564C696E655261AA
:1069000074696F6E616C6974792C2036323D363251
:10691000636867494C696E65526174696F6E616C3A
:106920006974792C2036333D3633636867564F756A
:1069300074526174696F6E616C6974792C2036349D
:106940003D3634636867494F7574526174696F6E80
:10695000616C6974792C2036353D36356368675033
:106960006C6C4E6F744C6F636B65642C2036363DD7
:106970003636646364634876526174696F6E616C25
:106980006974792C2036373D3637646364634C76FE
:10699000526174696F6E616C6974792C2036383D70
:1069A00036386463646354616E6B76526174696FE8
:1069B0006E616C6974792C2036393D3639636867AD
:1069C0005066634C696E65446964742C2037303DB1
:1069D00037306368675066634C696E6544766474EB
:1069E0002C2037313D3731636867506663494C6FFF
:1069F0006F70526174696F6E616C6974792C2037A5
:106A0000323D373263707532436C6153746F70700E
:106A100065642C2037333D3733756E657870656358
:106A20007465644163496E707574566F6C74616708
:106A3000652C2037343D373468764275734469736A
:106A40006368617267654661696C7572652C203791
:106A5000353D373568764275734469736368617292
:106A6000676554696D656F75742C2037363D373610
:106A700064636463456E44656173736572746564D1
:106A80004572722C2037373D37376D6963726F4717
:106A9000726964456E657267794C6F772C20373860
:106AA0003D373863686753746F7044636463546F31
:106AB0006F486F742C2037393D3739656570726FB8
:106AC0006D4F7065726174696F6E4572726F722C72
:106AD0002038303D383064616D61676564506861AD
